:100000000C9434000C9449000C9449000C94490061
:100010000C9449000C9449000C9449000C9449003C
:100020000C9449000C9449000C9449000C9449002C
:100030000C9449000C9449000C9449000C9449001C
:100040000C9449000C9449000C9449000C9449000C
:100050000C9449000C9449000C9449000C944900FC
:100060000C9449000C94490011241FBECFEFD8E036
:10007000DEBFCDBF11E0A0E0B1E0ECEDF0E002C0EA
:1000800005900D92AA30B107D9F70E944B000C944D
:100090006C000C9400008FEF8AB987B920E048EC1F
:1000A00050E0E22FF0E0E050FF4F80818BB9A0E0FC
:1000B000B1E08C9188B988E893E1FA013197F1F7C2
:1000C0000197D9F7119681E0AA30B80791F72F5F11
:0C00D0002A3038F320E0E5CFF894FFCF91
:0A00DC00C0F9A4B0999282F8809058
:00000001FF
