:100000000C9434000C9446000C9446000C9446006A
:100010000C9446000C9446000C9446000C94460048
:100020000C9446000C9446000C9446000C94460038
:100030000C9446000C9446000C9446000C94460028
:100040000C94A3000C9446000C9446000C944600BB
:100050000C9446000C9446000C9446000C94460008
:100060000C9446000C94460011241FBECFEFD8E03C
:10007000DEBFCDBF11E0A0E0B1E001C01D92A23013
:10008000B107E1F70E9448000C94CE000C940000E8
:10009000CF93DF938FE084B987B986E085BD8091E7
:1000A0006E00816080936E007894C0EDD7E026B535
:1000B0008091000190910101F82FEE27E20FF11DD0
:1000C00083E0E83EF80739F416BC10920101109263
:1000D0000001E0E0F0E0CF0168EE73E00E94BA00BA
:1000E000462FCF0168EE73E00E94BA0064E670E02C
:1000F0000E94BA00362FCF0164E670E00E94BA0079
:100100006AE070E00E94BA00262FCF016AE070E03A
:100110000E94BA0045B94098FE013197F1F7409A24
:1001200035B94198FE013197F1F7419A25B94298C6
:10013000FE013197F1F7429A85B94398CE010197B4
:10014000F1F7439AB4CF1F920F920FB60F9211247A
:100150008F939F938091000190910101019690935C
:100160000101809300019F918F910F900FBE0F901E
:100170001F901895AA1BBB1B51E107C0AA1FBB1FEC
:10018000A617B70710F0A61BB70B881F991F5A9523
:10019000A9F780959095BC01CD010895F894FFCF03
:00000001FF
