:100000000C9434000C943E000C943E000C943E0082
:100010000C943E000C943E000C943E000C943E0068
:100020000C943E000C943E000C943E000C943E0058
:100030000C943E000C943E000C943E000C943E0048
:100040000C943E000C943E000C943E000C943E0038
:100050000C943E000C943E000C943E000C943E0028
:100060000C943E000C943E0011241FBECFEFD8E04C
:10007000DEBFCDBF0E9440000C9457000C940000DE
:100080008FEF8AB91BB828E833E168E048EC50E00C
:1000900005C0CA010197F1F7215030402115310503
:1000A000C1F78BB186278BB928E833E1F2CFF894FA
:0200B000FFCF80
:00000001FF
