:100000000C9434000C943E000C943E000C943E0082
:100010000C943E000C943E000C943E000C943E0068
:100020000C943E000C943E000C943E000C943E0058
:100030000C943E000C943E000C943E000C943E0048
:100040000C943E000C943E000C943E000C943E0038
:100050000C943E000C943E000C943E000C943E0028
:100060000C943E000C943E0011241FBECFEFD8E04C
:10007000DEBFCDBF0E9440000C9455000C940000E0
:100080008FEF8AB91BB828E833E165E048EC50E00F
:1000900005C0CA010197F1F7215030402115310503
:0E00A000C1F769B928E833E1F4CFF894FFCF37
:00000001FF
