:100000000C9434000C9449000C9449000C94490061
:100010000C9449000C9449000C9449000C9449003C
:100020000C9449000C9449000C9449000C9449002C
:100030000C9449000C9449000C9449000C9449001C
:100040000C9449000C9449000C9449000C9449000C
:100050000C9449000C9449000C9449000C944900FC
:100060000C9449000C94490011241FBECFEFD8E036
:10007000DEBFCDBF11E0A0E0B1E0E0EBF2E002C0F6
:1000800005900D92A231B107D9F70E9431010C946D
:1000900056010C940000599A5998089587FF02C0A0
:1000A0005F9A01C05F9886FF02C05E9A01C05E98A9
:1000B00085FF02C05D9A01C05D9884FF02C05C9A12
:1000C00001C05C98599A599883FF02C05F9A01C099
:1000D0005F9882FF02C05E9A01C05E9881FF02C0F5
:1000E0005D9A01C05D9880FF02C05C9A01C05C9877
:1000F000599A599880ED97E00197F1F7089558982B
:1001000081E00E944E0080EA9FE00197F1F7089598
:10011000589A0E944E0008951F93CF93DF93EC01ED
:10012000589A10E003C00E9488001F5FFE01E10F93
:10013000F11D80818823B9F7DF91CF911F91089538
:10014000CF93DF93EA01813011F48FE70BC0823047
:1001500011F48FEB07C0833011F48FE803C08430B3
:1001600009F48FEC5898860F0E944E00589ACE01E1
:100170000E948C00DF91CF9108951F93142F81303E
:1001800011F48FE70BC0823011F48FEB07C083307E
:1001900011F48FE803C0843009F48FEC5898860F6F
:1001A0000E944E00589A812F0E9488001F91089546
:1001B000589880E395E70197F1F75C9A5D9A599A10
:1001C000599880E197E2FC013197F1F7599A5998D3
:1001D000E8ECF0E03197F1F7599A59980197F1F767
:1001E0005C98599A59988AE68A95F1F788E20E94B4
:1001F0004E008CE00E944E0081E00E944E0086E09E
:100200000E944E000895882319F4862F805802C05A
:10021000862F8054E0EDF7E03197F1F70E944E0011
:1002200085E88A95F1F708958EEF8BB988E10E94F1
:100230004E0088E893E128EC30E0F9013197F1F7BE
:100240000197D9F7089558988CE10E944E0088E8EC
:1002500093E128EC30E0F9013197F1F70197D9F7F4
:1002600008958FEF8AB90E94D80081E061E040E0F4
:1002700051E00E94A00080ED97E028EC30E0F90109
:100280003197F1F70197D9F782E061E049E051E059
:100290000E94A00080E197E228EC30E0F90131975C
:1002A000F1F70197D9F70E941401FDCFF894FFCF21
:1002B0005468696E6820647A007468696E68206F9B
:0202C0006B00D1
:00000001FF
