:100000000C9434000C9449000C9449000C94490061
:100010000C9449000C9449000C9449000C9449003C
:100020000C9449000C9449000C9449000C9449002C
:100030000C9449000C9449000C9449000C9449001C
:100040000C9449000C9449000C9449000C9449000C
:100050000C9449000C9449000C9449000C944900FC
:100060000C9449000C94490011241FBECFEFD8E036
:10007000DEBFCDBF12E0A0E0B1E0E6E1F0E102C0FA
:1000800005900D92A032B107D9F70E94A6040C94F6
:1000900009080C940000A0E2B0E0E1E5F0E00C9467
:1000A000310569837A838B839C832D833E834F83C1
:1000B0005887CE010196BE01675F7F4F0E941B03E8
:1000C000CE010596BE016F5E7F4F0E941B0399858E
:1000D000923088F089898230C8F0943019F48230E7
:1000E00051F404C0843029F4923081F488E191E025
:1000F000C6C0923049F420E09A858A89981321E09D
:100100002A87CE010996BBC0823049F420E09A8547
:100110008A89981321E02A8BCE014196B0C02D84A4
:100120003E844F8458886D887E888F88988CEE2412
:10013000FF248701AA24BB24650140E050E060E071
:1001400070E0E0E0F0E0C10181709070892BE9F08F
:10015000E60CF71C081D191D9A01AB012A0D3B1D69
:100160004C1D5D1D80E090E0A0E0B0E0E614F704D7
:100170000805190520F481E090E0A0E0B0E0BA01A4
:10018000A901480F591F6A1F7B1FAA0CBB1CCC1C5E
:10019000DD1C97FE08C081E090E0A0E0B0E0A82A56
:1001A000B92ACA2ADB2A3196E032F10549F0660CF9
:1001B000771C881C991C5694479437942794C3CF76
:1001C000FA85EA892B893C898B859C85280F391F04
:1001D0002E5F3F4F17C0CA0181709070892B61F06C
:1001E00016950795F794E79480E090E0A0E0B0E8DA
:1001F000E82AF92A0A2B1B2B769567955795479580
:100200002F5F3F4F77FDE7CF0CC0440F551F661F90
:10021000771F17FD4160EE0CFF1C001F111F2150BE
:100220003040403090E0590790E0690790E479074A
:1002300060F32B8F3C8FDB01CA018F779070A07029
:10024000B07080349105A105B10561F447FD0AC085
:10025000E114F1040105110529F0405C5F4F6F4F77
:100260007F4F40781A8EFE1711F081E08A8F4D8FF4
:100270005E8F6F8F78A383E0898FCE0149960E94AD
:100280004602A096E2E10C944D05A8E0B0E0EBE454
:10029000F1E00C943A059B01AC0183E08983DA011B
:1002A000C9018827B7FD83959927AA27BB27B82EB0
:1002B000211531054105510519F482E089833AC0C1
:1002C0008823A9F0203080E0380780E0480780E8E4
:1002D000580729F460E070E080E09FEC30C0EE2425
:1002E000FF248701E21AF30A040B150B02C07901FF
:1002F0008A018EE1C82ED12CDC82CB82ED82FE8277
:100300000F831887C801B7010E94F70101971816DB
:10031000190684F4082E04C0EE0CFF1C001F111FE8
:100320000A94D2F7ED82FE820F831887C81AD90A81
:10033000DC82CB82BA82CE0101960E9446022896C8
:10034000E9E00C945605ACE0B0E0E9EAF1E00C9489
:10035000410569837A838B839C83CE010196BE011C
:100360006B5F7F4F0E941B038D81823061F1823071
:1003700050F1843021F48E81882351F12EC02F81D9
:10038000388537FD20C06E812F3131051CF0662382
:10039000F9F023C08EE190E0821B930B29853A850A
:1003A0004B855C8504C056954795379527958A956A
:1003B000D2F76623B1F050954095309521953F4F87
:1003C0004F4F5F4F0EC020E030E040E050E009C0EA
:1003D0002FEF3FEF4FEF5FE704C020E030E040E059
:1003E00050E8B901CA012C96E2E00C945D05EF9249
:1003F000FF920F931F937B018C0180E0E81680E051
:10040000F80681E0080780E0180788F48FEFE81607
:10041000F1040105110531F028F088E090E0A0E03A
:10042000B0E017C080E090E0A0E0B0E012C080E053
:10043000E81680E0F80680E0080781E0180728F059
:1004400088E190E0A0E0B0E004C080E190E0A0E0AE
:10045000B0E020E230E040E050E0281B390B4A0BCE
:100460005B0B04C016950795F794E7948A95D2F72D
:10047000F701E05EFE4F8081281B310941095109D7
:10048000C9011F910F91FF90EF900895DF92EF92B5
:10049000FF920F931F93FC01E480F5800681178182
:1004A000D1808081823048F480E090E0A0E1B0E02B
:1004B000E82AF92A0A2B1B2BA5C0843009F49FC017
:1004C000823021F4EE24FF24870105C0E114F104F9
:1004D0000105110519F4E0E0F0E096C06281738136
:1004E0009FEF623879070CF05BC022E83FEF261BD4
:1004F000370B2A3131052CF020E030E040E050E0AD
:100500002AC0B801A701022E04C0769567955795B9
:1005100047950A94D2F781E090E0A0E0B0E004C0F3
:10052000880F991FAA1FBB1F2A95D2F70197A1090F
:10053000B1098E219F21A023B1230097A105B10508
:1005400021F081E090E0A0E0B0E09A01AB01282B1F
:10055000392B4A2B5B2BDA01C9018F779070A07081
:10056000B07080349105A105B10539F427FF09C0A9
:10057000205C3F4F4F4F5F4F04C0215C3F4F4F4FB8
:100580005F4FE0E0F0E02030A0E03A07A0E04A074B
:10059000A0E45A0710F0E1E0F0E079018A0127C0F9
:1005A0006038710564F5FB01E158FF4FD801C701C0
:1005B0008F779070A070B07080349105A105B1055F
:1005C00039F4E7FE0DC080E490E0A0E0B0E004C0A4
:1005D0008FE390E0A0E0B0E0E80EF91E0A1F1B1FB9
:1005E00017FF05C016950795F794E794319687E0B5
:1005F00016950795F794E7948A95D1F705C0EE24F0
:10060000FF248701EFEFF0E06E2F6795662767956F
:10061000902F9F77D794DD24D7948E2F8695492FDE
:10062000462B582F5D29B701CA011F910F91FF90EA
:10063000EF90DF900895FC01DB0140815181228120
:10064000622F6F7770E0221F2227221F9381892F4C
:10065000880F822B282F30E0991F9927991F119618
:100660009C93119721153105A9F541155105610597
:10067000710511F482E037C082E89FEF13969C93D6
:100680008E9312979A01AB0167E0220F331F441F2C
:10069000551F6A95D1F783E08C930DC0220F331F4D
:1006A000441F551F12968D919C9113970197139695
:1006B0009C938E931297203080E0380780E04807A3
:1006C00080E4580758F314962D933D934D935C9313
:1006D000179708952F3F310579F4411551056105AC
:1006E000710519F484E08C93089564FF03C081E0E0
:1006F0008C9312C01C9210C02F57304013963C931D
:100700002E93129783E08C9387E0440F551F661F4A
:10071000771F8A95D1F7706414964D935D936D930E
:100720007C9317970895599A5998089587FF02C0A6
:100730005F9A01C05F9886FF02C05E9A01C05E9812
:1007400085FF02C05D9A01C05D9884FF02C05C9A7B
:1007500001C05C98599A599883FF02C05F9A01C002
:100760005F9882FF02C05E9A01C05E9881FF02C05E
:100770005D9A01C05D9880FF02C05C9A01C05C98E0
:10078000599A599880ED97E00197F1F70895589894
:1007900081E00E94960380EA9FE00197F1F70895B7
:1007A000589A0E94960308951F93CF93DF93EC010C
:1007B000589A10E003C00E94D0031F5FFE01E10FB2
:1007C000F11D80818823B9F7DF91CF911F910895A2
:1007D000CF93DF93EA01813011F48FE70BC08230B1
:1007E00011F48FEB07C0833011F48FE803C084301D
:1007F00009F48FEC5898860F0E949603589ACE0100
:100800000E94D403DF91CF9108951F93142F81305C
:1008100011F48FE70BC0823011F48FEB07C08330E7
:1008200011F48FE803C0843009F48FEC5898860FD8
:100830000E949603589A812F0E94D0031F91089519
:10084000589880E395E70197F1F75C9A5D9A599A79
:10085000599880E197E2FC013197F1F7599A59983C
:10086000E8ECF0E03197F1F7599A59980197F1F7D0
:100870005C98599A59988AE68A95F1F788E20E941D
:1008800096038CE00E94960381E00E94960386E026
:100890000E9496030895882319F4862F805802C079
:1008A000862F8054E0EDF7E03197F1F70E94960330
:1008B00085E88A95F1F708958EEF8BB988E10E945B
:1008C000960388E893E128EC30E0F9013197F1F7DD
:1008D0000197D9F7089558988CE10E94960388E80B
:1008E00093E128EC30E0F9013197F1F70197D9F75E
:1008F000089580937C0087E880937A00089597B1EB
:1009000021E030E0082E02C0220F331F0A94E2F7E4
:100910002095292327B990917C00982B90937C00F7
:1009200080917A00806480937A0080917A0084FFBD
:10093000FCCF85E38A95F1F790917800809179005A
:10094000382F20E0290F311DC90108958F929F9201
:10095000AF92BF92CF92DF92EF92FF920F931F93CD
:10096000DF93CF93CDB7DEB764970FB6F894DEBFB1
:100970000FBECDBF8FEF8AB90E94200481E061E0F5
:1009800040E051E00E94E80382E061E04BE051E08A
:100990000E94E80380E480937C0087E880937A00DB
:1009A0005E010894A11CB11C84E1882E81E0982E80
:1009B00080E00E947F047C0100D000D000D0EDB721
:1009C000FEB73196ADB7BEB71296BC92AE921197F4
:1009D00093828282958384830E946805EDB7FEB777
:1009E00036960FB6F894FEBF0FBEEDBF81E06CE007
:1009F000A5010E94E80300D000D000D0CDB6DEB63D
:100A00000894C11CD11CADB7BEB71296BC92AE9271
:100A10001197F601938282820027F7FC0095102F30
:100A2000C801B7010E94450128E638EE4FE95BE3B3
:100A30000E944B000E94A301D60115967C936E93F1
:100A400014970E946805EDB7FEB736960FB6F89476
:100A5000FEBF0FBEEDBF82E06AE0A5010E94E80381
:100A6000A7CF2F923F924F925F926F927F928F9279
:100A70009F92AF92BF92CF92DF92EF92FF920F932D
:100A80001F93CF93DF93CDB7DEB7CA1BDB0B0FB637
:100A9000F894DEBF0FBECDBF09942A8839884888F4
:100AA0005F846E847D848C849B84AA84B984C8848A
:100AB000DF80EE80FD800C811B81AA81B981CE0F81
:100AC000D11D0FB6F894DEBF0FBECDBFED01089566
:100AD000AEE0B0E0EEE6F5E00C943F050D891E892E
:100AE00086E08C831A8309838FEF9FE79E838D8333
:100AF0009E01275E3F4FCE0101966F89788DA90137
:100B00000E948C052F813885020F131FF801108277
:100B10002E96E4E00C945B05ABE0B0E0E2E9F5E092
:100B20000C9431053C012B015A01FC0117821682FD
:100B3000838181FD03C06FEF7FEFC6C19AE0892EEC
:100B40001E010894211C311CF3012381F20123FDB5
:100B5000859123FF81912F01882309F4B2C1853249
:100B600039F423FD859123FF81912F01853229F4EA
:100B700090E0B3010E947F07E7CF982FFF24EE2477
:100B80009924FFE1FF15D0F09B3269F09C3228F4E4
:100B9000903259F0933291F40EC09D3249F0903367
:100BA00069F441E024C052E0F52A84E0F82A28C024
:100BB00098E0F92A25C0E0E1FE2A22C0F7FC29C00E
:100BC000892F80538A3070F4F6FE05C0989C902CD3
:100BD0001124980E15C0E89CE02C1124E80EF0E2D8
:100BE000FF2A0EC09E3229F4F6FC6BC140E4F42AC1
:100BF00007C09C3619F450E8F52A02C0983649F42B
:100C0000F20123FD959123FF91912F01992309F082
:100C1000B8CF892F8554833018F08052833038F450
:100C200044E050E0A40EB51E5FE359830FC0933635
:100C300031F0933779F0933509F056C020C0F501B3
:100C40008081898342E050E0A40EB51E610101E07D
:100C500010E012C0F501C080D180F6FC03C06FEF38
:100C60007FEF02C0692D70E042E050E0A40EB51E97
:100C7000C6010E9474078C015FE7F52214C0F501DC
:100C8000C080D180F6FC03C06FEF7FEF02C0692DFA
:100C900070E042E050E0A40EB51EC6010E94690754
:100CA0008C0150E8F52AF3FE07C01AC080E290E0FC
:100CB000B3010E947F07EA948E2D90E00817190770
:100CC000A8F30EC0F601F7FC8591F7FE81916F0144
:100CD00090E0B3010E947F07E110EA9401501040B8
:100CE0000115110579F7EAC0943611F0993669F5C6
:100CF000F7FE08C0F501208131814281538184E0F3
:100D000090E00AC0F501808191819C01442737FD64
:100D10004095542F82E090E0A80EB91E9FE6F9227C
:100D200057FF09C050954095309521953F4F4F4F43
:100D30005F4FE0E8FE2ACA01B901A1012AE030E0D4
:100D40000E94AB07D82ED21840C0953729F41F2D2A
:100D50001F7E2AE030E01DC01F2D197F9F3661F0F5
:100D6000903720F4983509F0ACC00FC0903739F0B7
:100D7000983709F0A6C004C028E030E00AC010612E
:100D800014FD146020E130E004C014FD166020E181
:100D900032E017FF08C0F501608171818281938183
:100DA00044E050E008C0F50180819181BC0180E001
:100DB00090E042E050E0A40EB51EA1010E94AB07F6
:100DC000D82ED2188FE7F82EF122F6FE0BC05EEF78
:100DD000F522D91438F4F4FE07C0F2FC05C08FEEFA
:100DE000F82202C01D2D01C0192DF4FE0DC0FE0118
:100DF000ED0DF11D8081803319F499EEF92208C0C0
:100E00001F5FF2FE05C003C08F2D867809F01F5FBB
:100E10000F2DF3FC14C0F0FE0FC01E1510F09D2C1A
:100E20000BC09D2C9E0C911A1E2D06C080E290E0F6
:100E3000B3010E947F071F5F1E15C0F304C01E157B
:100E400010F4E11A01C0EE2404FF0FC080E390E02B
:100E5000B3010E947F0702FF1DC001FD03C088E7A8
:100E600090E00EC088E590E00BC0802F867891F06E
:100E700001FF02C08BE201C080E2F7FC8DE290E04E
:100E8000B3010E947F0706C080E390E0B3010E9497
:100E90007F079A94D914C0F3DA94F101ED0DF11D96
:100EA000808190E0B3010E947F07DD20A9F706C092
:100EB00080E290E0B3010E947F07EA94EE20C1F740
:100EC00043CEF30166817781CB012B96E2E10C944E
:100ED0004D05FC010590615070400110D8F78095D8
:100EE00090958E0F9F1F0895FC01615070400190F6
:100EF0000110D8F7809590958E0F9F1F08950F933E
:100F00001F93CF93DF938C01EB018B8181FF1BC07B
:100F100082FF0DC02E813F818C819D81281739076A
:100F200064F4E881F9810193F983E88306C0E885D8
:100F3000F985802F0995892B31F48E819F81019647
:100F40009F838E8302C00FEF1FEFC801DF91CF9107
:100F50001F910F910895FA01AA27283051F12031ED
:100F600081F1E8946F936E7F6E5F7F4F8F4F9F4F3D
:100F7000AF4FB1E03ED0B4E03CD0670F781F891F7F
:100F80009A1FA11D680F791F8A1F911DA11D6A0F4D
:100F9000711D811D911DA11D20D009F468943F9100
:100FA0002AE0269F11243019305D3193DEF6CF01FF
:100FB0000895462F4770405D4193B3E00FD0C9F7C5
:100FC000F6CF462F4F70405D4A3318F0495D31FD32
:100FD0004052419302D0A9F7EACFB4E0A695979585
:100FE000879577956795BA95C9F70097610571055B
:100FF00008959B01AC010A2E0694579547953795A5
:101000002795BA95C9F7620F731F841F951FA01DFE
:061010000895F894FFCFE3
:101016004144432056616C75653A00566F6C7461A5
:1010260067653A002025640000000000000000000B
:101036000001020203030303040404040404040479
:10104600050505050505050505050505050505054A
:10105600060606060606060606060606060606062A
:10106600060606060606060606060606060606061A
:1010760007070707070707070707070707070707FA
:1010860007070707070707070707070707070707EA
:1010960007070707070707070707070707070707DA
:1010A60007070707070707070707070707070707CA
:1010B60008080808080808080808080808080808AA
:1010C600080808080808080808080808080808089A
:1010D600080808080808080808080808080808088A
:1010E600080808080808080808080808080808087A
:1010F600080808080808080808080808080808086A
:101106000808080808080808080808080808080859
:101116000808080808080808080808080808080849
:101126000808080808080808080808080808080839
:00000001FF
